:020000001628C0
:0E0006008312031323088A00220882000800D8
:1000140003208A110A128000840AA20A0319A30A7F
:08002400F003031D0A28080087
:10002C0083120313A001A101073083169F008901DD
:10003C008601880105168516FF308700FF30831274
:10004C008700091089100915081488100811201848
:10005C003128061032280614A018362886103728A6
:10006C00861420193B2806113C280615A019402897
:10007C008611412886152118452806124628061691
:10008C00A1184A2886124B28861621194F280613C8
:10009C0050280617A1195428861355288617A00A2C
:1000AC000B30FB002630FC005D30FD00FD0B5C28A6
:1000BC00FC0B5C28FB0B5C280000000020080A3AB3
:1000CC00031D6F28A10A21080A3A031D6E28A101FD
:1000DC00A001051E7B28851E7B280810091088149A
:1000EC00891408110911A001A101051AEB28200897
:1000FC00013A031D8E282108023A031D8E28891807
:10010C008E28091D8E2809118914091C8E280910A6
:10011C002008043A031DA1282108023A031DA12836
:10012C008818A128081CA12808108814081D9F28CD
:10013C000811A001A1012008043A031DB4282108CC
:10014C00003A031DB4280918B428891CB428891056
:10015C000914091DB2280911A001A1012008043AB3
:10016C00031DC7282108003A031DC7280819C728F2
:10017C00881CC72888100815081CC5280810A00161
:10018C00A1012008033A031DD8282108013A031DB8
:10019C00D8280818D828081DD82808140811881C35
:1001AC00D82888102008063A031DEB282108013AAC
:1001BC00031DEB280919EB28091CEB28091009155C
:0E01CC00891CE9288910A001A1012D28EC282A
:02400E004A2F37
:00000001FF
